{
  "contractName": "Swap",
  "abi": [
    {
      "constant": true,
      "inputs": [
        {
          "name": "",
          "type": "address"
        },
        {
          "name": "",
          "type": "uint256"
        }
      ],
      "name": "makerOrderStatus",
      "outputs": [
        {
          "name": "",
          "type": "bytes1"
        }
      ],
      "payable": false,
      "stateMutability": "view",
      "type": "function"
    },
    {
      "constant": false,
      "inputs": [
        {
          "name": "delegate",
          "type": "address"
        }
      ],
      "name": "revoke",
      "outputs": [
        {
          "name": "",
          "type": "bool"
        }
      ],
      "payable": false,
      "stateMutability": "nonpayable",
      "type": "function"
    },
    {
      "constant": false,
      "inputs": [
        {
          "name": "delegate",
          "type": "address"
        },
        {
          "name": "expiry",
          "type": "uint256"
        }
      ],
      "name": "authorize",
      "outputs": [
        {
          "name": "",
          "type": "bool"
        }
      ],
      "payable": false,
      "stateMutability": "nonpayable",
      "type": "function"
    },
    {
      "anonymous": false,
      "inputs": [
        {
          "indexed": true,
          "name": "id",
          "type": "uint256"
        },
        {
          "indexed": true,
          "name": "makerAddress",
          "type": "address"
        },
        {
          "indexed": false,
          "name": "makerParam",
          "type": "uint256"
        },
        {
          "indexed": false,
          "name": "makerToken",
          "type": "address"
        },
        {
          "indexed": false,
          "name": "takerAddress",
          "type": "address"
        },
        {
          "indexed": false,
          "name": "takerParam",
          "type": "uint256"
        },
        {
          "indexed": false,
          "name": "takerToken",
          "type": "address"
        },
        {
          "indexed": false,
          "name": "affiliateAddress",
          "type": "address"
        },
        {
          "indexed": false,
          "name": "affiliateParam",
          "type": "uint256"
        },
        {
          "indexed": false,
          "name": "affiliateToken",
          "type": "address"
        }
      ],
      "name": "Swap",
      "type": "event"
    },
    {
      "anonymous": false,
      "inputs": [
        {
          "indexed": true,
          "name": "id",
          "type": "uint256"
        },
        {
          "indexed": true,
          "name": "makerAddress",
          "type": "address"
        }
      ],
      "name": "Cancel",
      "type": "event"
    },
    {
      "anonymous": false,
      "inputs": [
        {
          "indexed": true,
          "name": "approverAddress",
          "type": "address"
        },
        {
          "indexed": true,
          "name": "delegateAddress",
          "type": "address"
        },
        {
          "indexed": false,
          "name": "expiry",
          "type": "uint256"
        }
      ],
      "name": "Authorization",
      "type": "event"
    },
    {
      "anonymous": false,
      "inputs": [
        {
          "indexed": true,
          "name": "approverAddress",
          "type": "address"
        },
        {
          "indexed": true,
          "name": "delegateAddress",
          "type": "address"
        }
      ],
      "name": "Revocation",
      "type": "event"
    },
    {
      "constant": false,
      "inputs": [
        {
          "components": [
            {
              "name": "id",
              "type": "uint256"
            },
            {
              "name": "expiry",
              "type": "uint256"
            },
            {
              "components": [
                {
                  "name": "wallet",
                  "type": "address"
                },
                {
                  "name": "token",
                  "type": "address"
                },
                {
                  "name": "param",
                  "type": "uint256"
                }
              ],
              "name": "maker",
              "type": "tuple"
            },
            {
              "components": [
                {
                  "name": "wallet",
                  "type": "address"
                },
                {
                  "name": "token",
                  "type": "address"
                },
                {
                  "name": "param",
                  "type": "uint256"
                }
              ],
              "name": "taker",
              "type": "tuple"
            },
            {
              "components": [
                {
                  "name": "wallet",
                  "type": "address"
                },
                {
                  "name": "token",
                  "type": "address"
                },
                {
                  "name": "param",
                  "type": "uint256"
                }
              ],
              "name": "affiliate",
              "type": "tuple"
            }
          ],
          "name": "order",
          "type": "tuple"
        },
        {
          "components": [
            {
              "name": "signer",
              "type": "address"
            },
            {
              "name": "r",
              "type": "bytes32"
            },
            {
              "name": "s",
              "type": "bytes32"
            },
            {
              "name": "v",
              "type": "uint8"
            },
            {
              "name": "version",
              "type": "bytes1"
            }
          ],
          "name": "signature",
          "type": "tuple"
        }
      ],
      "name": "swap",
      "outputs": [],
      "payable": true,
      "stateMutability": "payable",
      "type": "function"
    },
    {
      "constant": false,
      "inputs": [
        {
          "name": "id",
          "type": "uint256"
        },
        {
          "name": "makerWallet",
          "type": "address"
        },
        {
          "name": "makerParam",
          "type": "uint256"
        },
        {
          "name": "makerToken",
          "type": "address"
        },
        {
          "name": "takerWallet",
          "type": "address"
        },
        {
          "name": "takerParam",
          "type": "uint256"
        },
        {
          "name": "takerToken",
          "type": "address"
        },
        {
          "name": "expiry",
          "type": "uint256"
        },
        {
          "name": "r",
          "type": "bytes32"
        },
        {
          "name": "s",
          "type": "bytes32"
        },
        {
          "name": "v",
          "type": "uint8"
        }
      ],
      "name": "swap",
      "outputs": [],
      "payable": true,
      "stateMutability": "payable",
      "type": "function"
    },
    {
      "constant": false,
      "inputs": [
        {
          "name": "ids",
          "type": "uint256[]"
        }
      ],
      "name": "cancel",
      "outputs": [],
      "payable": false,
      "stateMutability": "nonpayable",
      "type": "function"
    }
  ],
  "bytecode": "0x60806040526040516020016200001590620002b9565b604051602081830303815290604052805190602001206040518060400160405280600481526020017f5357415000000000000000000000000000000000000000000000000000000000815250604051620000709190620002a0565b60405180910390206040518060400160405280600181526020017f3200000000000000000000000000000000000000000000000000000000000000815250604051620000bd9190620002a0565b604051809103902030604051602001620000db949392919062000304565b60405160208183030381529060405280519060200120600181905550620003fa565b620001088162000372565b82525050565b60006200011b8262000351565b6200012781856200035c565b935062000139818560208601620003c4565b80840191505092915050565b62000150816200039c565b82525050565b600062000165600c8362000367565b91507f737472696e67206e616d652c00000000000000000000000000000000000000006000830152600c82019050919050565b6000620001a760198362000367565b91507f6164647265737320766572696679696e67436f6e7472616374000000000000006000830152601982019050919050565b6000620001e960018362000367565b91507f29000000000000000000000000000000000000000000000000000000000000006000830152600182019050919050565b60006200022b600f8362000367565b91507f737472696e672076657273696f6e2c00000000000000000000000000000000006000830152600f82019050919050565b60006200026d600d8362000367565b91507f454950373132446f6d61696e28000000000000000000000000000000000000006000830152600d82019050919050565b6000620002ae82846200010e565b915081905092915050565b6000620002c6826200025e565b9150620002d38262000156565b9150620002e0826200021c565b9150620002ed8262000198565b9150620002fa82620001da565b9150819050919050565b60006080820190506200031b6000830187620000fd565b6200032a6020830186620000fd565b620003396040830185620000fd565b62000348606083018462000145565b95945050505050565b600081519050919050565b600081905092915050565b600081905092915050565b6000819050919050565b600073ffffffffffffffffffffffffffffffffffffffff82169050919050565b6000620003a982620003b0565b9050919050565b6000620003bd826200037c565b9050919050565b60005b83811015620003e4578082015181840152602081019050620003c7565b83811115620003f4576000848401525b50505050565b6136d7806200040a6000396000f3fe608060405260043610610072576000357c0100000000000000000000000000000000000000000000000000000000900480632e340823146100775780633987f6a4146100a057806374a8f103146100dd5780637e871a811461011a578063c1dbd9b214610136578063efd6afa914610173575b600080fd5b34801561008357600080fd5b5061009e60048036036100999190810190612319565b61018f565b005b3480156100ac57600080fd5b506100c760048036036100c291908101906122dd565b6103c4565b6040516100d49190613002565b60405180910390f35b3480156100e957600080fd5b5061010460048036036100ff91908101906122b4565b610412565b6040516101119190612fe7565b60405180910390f35b610134600480360361012f9190810190612387565b6104f2565b005b34801561014257600080fd5b5061015d600480360361015891908101906122dd565b610dd7565b60405161016a9190612fe7565b60405180910390f35b61018d60048036036101889190810190612441565b610f79565b005b60008090505b828290508110156103bf5760007f0100000000000000000000000000000000000000000000000000000000000000027effffffffffffffffffffffffffffffffffffffffffffffffffffffffffffff1916600260003373ffffffffffffffffffffffffffffffffffffffff1673ffffffffffffffffffffffffffffffffffffffff168152602001908152602001600020600085858581811061023357fe5b90506020020135815260200190815260200160002060009054906101000a90047f0100000000000000000000000000000000000000000000000000000000000000027effffffffffffffffffffffffffffffffffffffffffffffffffffffffffffff191614156103b25760027f010000000000000000000000000000000000000000000000000000000000000002600260003373ffffffffffffffffffffffffffffffffffffffff1673ffffffffffffffffffffffffffffffffffffffff168152602001908152602001600020600085858581811061030e57fe5b90506020020135815260200190815260200160002060006101000a81548160ff02191690837f0100000000000000000000000000000000000000000000000000000000000000900402179055503373ffffffffffffffffffffffffffffffffffffffff1683838381811061037e57fe5b905060200201357f8dd3c361eb2366ff27c2db0eb07b9261f1d052570742ab8c9a0c326f37aa576d60405160405180910390a35b8080600101915050610195565b505050565b60026020528160005260406000206020528060005260406000206000915091509054906101000a90047f01000000000000000000000000000000000000000000000000000000000000000281565b60008060003373ffffffffffffffffffffffffffffffffffffffff1673ffffffffffffffffffffffffffffffffffffffff16815260200190815260200160002060008373ffffffffffffffffffffffffffffffffffffffff1673ffffffffffffffffffffffffffffffffffffffff168152602001908152602001600020600090558173ffffffffffffffffffffffffffffffffffffffff163373ffffffffffffffffffffffffffffffffffffffff167f6461d55e3edc9ce5c9c80d7bfb1a6fbcb71312efa790a6687225eadf3bdaffaf60405160405180910390a3919050565b61052382604001600001602061050b91908101906122b4565b82600001602061051e91908101906122b4565b61132c565b610562576040517f08c379a0000000000000000000000000000000000000000000000000000000008152600401610559906132a5565b60405180910390fd5b61058c8280360361057691908101906123c5565b8280360361058791908101906123ef565b6113f2565b6105cb576040517f08c379a00000000000000000000000000000000000000000000000000000000081526004016105c290613265565b60405180910390fd5b60017f0100000000000000000000000000000000000000000000000000000000000000027effffffffffffffffffffffffffffffffffffffffffffffffffffffffffffff19166002600084604001600001602061062b91908101906122b4565b73ffffffffffffffffffffffffffffffffffffffff1673ffffffffffffffffffffffffffffffffffffffff16815260200190815260200160002060008460000135815260200190815260200160002060009054906101000a90047f0100000000000000000000000000000000000000000000000000000000000000027effffffffffffffffffffffffffffffffffffffffffffffffffffffffffffff1916141561070a576040517f08c379a000000000000000000000000000000000000000000000000000000000815260040161070190613145565b60405180910390fd5b60027f0100000000000000000000000000000000000000000000000000000000000000027effffffffffffffffffffffffffffffffffffffffffffffffffffffffffffff19166002600084604001600001602061076a91908101906122b4565b73ffffffffffffffffffffffffffffffffffffffff1673ffffffffffffffffffffffffffffffffffffffff16815260200190815260200160002060008460000135815260200190815260200160002060009054906101000a90047f0100000000000000000000000000000000000000000000000000000000000000027effffffffffffffffffffffffffffffffffffffffffffffffffffffffffffff19161415610849576040517f08c379a000000000000000000000000000000000000000000000000000000000815260040161084090613165565b60405180910390fd5b4282602001351161088f576040517f08c379a000000000000000000000000000000000000000000000000000000000815260040161088690613225565b60405180910390fd5b8160a00160000160206108a591908101906122b4565b73ffffffffffffffffffffffffffffffffffffffff163373ffffffffffffffffffffffffffffffffffffffff1614610936576108f68260a00160000160206108f091908101906122b4565b3361132c565b610935576040517f08c379a000000000000000000000000000000000000000000000000000000000815260040161092c90613205565b60405180910390fd5b5b60017f0100000000000000000000000000000000000000000000000000000000000000026002600084604001600001602061097491908101906122b4565b73ffffffffffffffffffffffffffffffffffffffff1673ffffffffffffffffffffffffffffffffffffffff16815260200190815260200160002060008460000135815260200190815260200160002060006101000a81548160ff02191690837f010000000000000000000000000000000000000000000000000000000000000090040217905550600073ffffffffffffffffffffffffffffffffffffffff168260a0016020016020610a2991908101906122b4565b73ffffffffffffffffffffffffffffffffffffffff161415610ab2578160a001604001353414610a8e576040517f08c379a0000000000000000000000000000000000000000000000000000000008152600401610a85906131c5565b60405180910390fd5b610aad826040016000016020610aa791908101906122b4565b34611643565b610b7e565b60003414610af5576040517f08c379a0000000000000000000000000000000000000000000000000000000008152600401610aec906131a5565b60405180910390fd5b610b7d6040518060400160405280600581526020017f54414b45520000000000000000000000000000000000000000000000000000008152508360a0016000016020610b4491908101906122b4565b846040016000016020610b5a91908101906122b4565b8560a001604001358660a0016020016020610b7891908101906122b4565b611694565b5b610c066040518060400160405280600581526020017f4d414b4552000000000000000000000000000000000000000000000000000000815250836040016000016020610bcd91908101906122b4565b8460a0016000016020610be391908101906122b4565b8560400160400135866040016020016020610c0191908101906122b4565b611694565b600073ffffffffffffffffffffffffffffffffffffffff1682610100016000016020610c3591908101906122b4565b73ffffffffffffffffffffffffffffffffffffffff1614610cdc57610cdb6040518060400160405280600581526020017f4d414b4552000000000000000000000000000000000000000000000000000000815250836040016000016020610c9f91908101906122b4565b84610100016000016020610cb691908101906122b4565b85610100016040013586610100016020016020610cd691908101906122b4565b611694565b5b816040016000016020610cf291908101906122b4565b73ffffffffffffffffffffffffffffffffffffffff1682600001357fe79dabf197b61e5e1631a9684aa64f31a7e943afbece34a2980ad3b4bb21a6808460400160400135856040016020016020610d4c91908101906122b4565b8660a0016000016020610d6291908101906122b4565b8760a001604001358860a0016020016020610d8091908101906122b4565b89610100016000016020610d9791908101906122b4565b8a61010001604001358b610100016020016020610db791908101906122b4565b604051610dcb98979695949392919061335e565b60405180910390a35050565b60008273ffffffffffffffffffffffffffffffffffffffff163373ffffffffffffffffffffffffffffffffffffffff161415610e48576040517f08c379a0000000000000000000000000000000000000000000000000000000008152600401610e3f90613245565b60405180910390fd5b428211610e8a576040517f08c379a0000000000000000000000000000000000000000000000000000000008152600401610e8190613285565b60405180910390fd5b816000803373ffffffffffffffffffffffffffffffffffffffff1673ffffffffffffffffffffffffffffffffffffffff16815260200190815260200160002060008573ffffffffffffffffffffffffffffffffffffffff1673ffffffffffffffffffffffffffffffffffffffff168152602001908152602001600020819055508273ffffffffffffffffffffffffffffffffffffffff163373ffffffffffffffffffffffffffffffffffffffff167f8a1c60ca1a16acd72d841a74fa5905de3938132b0b2ff6cb385a7e69af345fc984604051610f6791906132c5565b60405180910390a36001905092915050565b428411610fbb576040517f08c379a0000000000000000000000000000000000000000000000000000000008152600401610fb290613225565b60405180910390fd5b60007f0100000000000000000000000000000000000000000000000000000000000000027effffffffffffffffffffffffffffffffffffffffffffffffffffffffffffff1916600260008c73ffffffffffffffffffffffffffffffffffffffff1673ffffffffffffffffffffffffffffffffffffffff16815260200190815260200160002060008d815260200190815260200160002060009054906101000a90047f0100000000000000000000000000000000000000000000000000000000000000027effffffffffffffffffffffffffffffffffffffffffffffffffffffffffffff1916146110e0576040517f08c379a00000000000000000000000000000000000000000000000000000000081526004016110d790613185565b60405180910390fd5b6110f38b8b8b8b8b8b8b8b8b8b8b611ab7565b611132576040517f08c379a000000000000000000000000000000000000000000000000000000000815260040161112990613265565b60405180910390fd5b60017f010000000000000000000000000000000000000000000000000000000000000002600260008c73ffffffffffffffffffffffffffffffffffffffff1673ffffffffffffffffffffffffffffffffffffffff16815260200190815260200160002060008d815260200190815260200160002060006101000a81548160ff02191690837f010000000000000000000000000000000000000000000000000000000000000090040217905550600073ffffffffffffffffffffffffffffffffffffffff168573ffffffffffffffffffffffffffffffffffffffff16141561126457853414611255576040517f08c379a000000000000000000000000000000000000000000000000000000000815260040161124c906131c5565b60405180910390fd5b61125f8a34611643565b6112b4565b600034146112a7576040517f08c379a000000000000000000000000000000000000000000000000000000000815260040161129e906131a5565b60405180910390fd5b6112b385888c89611bc8565b5b6112c0888b898c611bc8565b8973ffffffffffffffffffffffffffffffffffffffff168b7fe79dabf197b61e5e1631a9684aa64f31a7e943afbece34a2980ad3b4bb21a6808b8b8b8b8b60008060006040516113179897969594939291906132e0565b60405180910390a35050505050505050505050565b60008173ffffffffffffffffffffffffffffffffffffffff168373ffffffffffffffffffffffffffffffffffffffff16141561136b57600190506113ec565b426000808573ffffffffffffffffffffffffffffffffffffffff1673ffffffffffffffffffffffffffffffffffffffff16815260200190815260200160002060008473ffffffffffffffffffffffffffffffffffffffff1673ffffffffffffffffffffffffffffffffffffffff168152602001908152602001600020541190505b92915050565b600060017f0100000000000000000000000000000000000000000000000000000000000000027effffffffffffffffffffffffffffffffffffffffffffffffffffffffffffff191682608001517effffffffffffffffffffffffffffffffffffffffffffffffffffffffffffff1916141561150357600161147284611d64565b8360600151846020015185604001516040516000815260200160405260405161149e94939291906130c3565b6020604051602081039080840390855afa1580156114c0573d6000803e3d6000fd5b5050506020604051035173ffffffffffffffffffffffffffffffffffffffff16826000015173ffffffffffffffffffffffffffffffffffffffff1614905061163d565b60457f0100000000000000000000000000000000000000000000000000000000000000027effffffffffffffffffffffffffffffffffffffffffffffffffffffffffffff191682608001517effffffffffffffffffffffffffffffffffffffffffffffffffffffffffffff1916141561163857600161158184611d64565b6040516020016115919190612e77565b60405160208183030381529060405280519060200120836060015184602001518560400151604051600081526020016040526040516115d394939291906130c3565b6020604051602081039080840390855afa1580156115f5573d6000803e3d6000fd5b5050506020604051035173ffffffffffffffffffffffffffffffffffffffff16826000015173ffffffffffffffffffffffffffffffffffffffff1614905061163d565b600090505b92915050565b60008290508073ffffffffffffffffffffffffffffffffffffffff166108fc839081150290604051600060405180830381858888f1935050505015801561168e573d6000803e3d6000fd5b50505050565b6116e06380ac58cd7c0100000000000000000000000000000000000000000000000000000000028273ffffffffffffffffffffffffffffffffffffffff16611e4f90919063ffffffff16565b15611775578073ffffffffffffffffffffffffffffffffffffffff166342842e0e8585856040518463ffffffff167c010000000000000000000000000000000000000000000000000000000002815260040161173e93929190612fb0565b600060405180830381600087803b15801561175857600080fd5b505af115801561176c573d6000803e3d6000fd5b50505050611ab0565b600073ffffffffffffffffffffffffffffffffffffffff168373ffffffffffffffffffffffffffffffffffffffff1614156117e5576040517f08c379a00000000000000000000000000000000000000000000000000000000081526004016117dc906131e5565b60405180910390fd5b818173ffffffffffffffffffffffffffffffffffffffff166370a08231866040518263ffffffff167c010000000000000000000000000000000000000000000000000000000002815260040161183b9190612f6c565b60206040518083038186803b15801561185357600080fd5b505afa158015611867573d6000803e3d6000fd5b505050506040513d601f19601f8201168201806040525061188b9190810190612418565b10158560405160200161189e9190612dfa565b604051602081830303815290604052906118ee576040517f08c379a00000000000000000000000000000000000000000000000000000000081526004016118e59190613123565b60405180910390fd5b50818173ffffffffffffffffffffffffffffffffffffffff1663dd62ed3e86306040518363ffffffff167c0100000000000000000000000000000000000000000000000000000000028152600401611947929190612f87565b60206040518083038186803b15801561195f57600080fd5b505afa158015611973573d6000803e3d6000fd5b505050506040513d601f19601f820116820180604052506119979190810190612418565b1015856040516020016119aa9190612e1c565b604051602081830303815290604052906119fa576040517f08c379a00000000000000000000000000000000000000000000000000000000081526004016119f19190613123565b60405180910390fd5b508073ffffffffffffffffffffffffffffffffffffffff166323b872dd8585856040518463ffffffff167c0100000000000000000000000000000000000000000000000000000000028152600401611a5493929190612fb0565b602060405180830381600087803b158015611a6e57600080fd5b505af1158015611a82573d6000803e3d6000fd5b505050506040513d601f19601f82011682018060405250611aa6919081019061235e565b611aaf57600080fd5b5b5050505050565b6000600160007f010000000000000000000000000000000000000000000000000000000000000002308e8e8e8e8e8e8e8e604051602001611b019a99989796959493929190612d46565b60405160208183030381529060405280519060200120604051602001611b279190612e77565b6040516020818303038152906040528051906020012083868660405160008152602001604052604051611b5d94939291906130c3565b6020604051602081039080840390855afa158015611b7f573d6000803e3d6000fd5b5050506020604051035173ffffffffffffffffffffffffffffffffffffffff168b73ffffffffffffffffffffffffffffffffffffffff161490509b9a5050505050505050505050565b611c146380ac58cd7c0100000000000000000000000000000000000000000000000000000000028573ffffffffffffffffffffffffffffffffffffffff16611e4f90919063ffffffff16565b15611ca9578373ffffffffffffffffffffffffffffffffffffffff166342842e0e8484846040518463ffffffff167c0100000000000000000000000000000000000000000000000000000000028152600401611c7293929190612fb0565b600060405180830381600087803b158015611c8c57600080fd5b505af1158015611ca0573d6000803e3d6000fd5b50505050611d5e565b8373ffffffffffffffffffffffffffffffffffffffff166323b872dd8484846040518463ffffffff167c0100000000000000000000000000000000000000000000000000000000028152600401611d0293929190612fb0565b602060405180830381600087803b158015611d1c57600080fd5b505af1158015611d30573d6000803e3d6000fd5b505050506040513d601f19601f82011682018060405250611d54919081019061235e565b611d5d57600080fd5b5b50505050565b60006040518060400160405280600281526020017f1901000000000000000000000000000000000000000000000000000000000000815250600154604051602001611dae90612e9d565b6040516020818303038152906040528051906020012084600001518560200151611ddb8760400151611e74565b611de88860600151611e74565b611df58960800151611e74565b604051602001611e0a96959493929190613062565b60405160208183030381529060405280519060200120604051602001611e3293929190612e3e565b604051602081830303815290604052805190602001209050919050565b6000611e5a83611eda565b8015611e6c5750611e6b8383611f46565b5b905092915050565b6000604051602001611e8590612f2b565b60405160208183030381529060405280519060200120826000015183602001518460400151604051602001611ebd949392919061301d565b604051602081830303815290604052805190602001209050919050565b6000611f09826301ffc9a77c010000000000000000000000000000000000000000000000000000000002611f46565b8015611f3f5750611f3d8263ffffffff7c010000000000000000000000000000000000000000000000000000000002611f46565b155b9050919050565b6000806000611f558585611f6d565b91509150818015611f635750805b9250505092915050565b60008060606301ffc9a77c01000000000000000000000000000000000000000000000000000000000284604051602401611fa79190613108565b604051602081830303815290604052907bffffffffffffffffffffffffffffffffffffffffffffffffffffffff19166020820180517bffffffffffffffffffffffffffffffffffffffffffffffffffffffff838183161783525050505090508060200181516040516000815260208183858b617530fa955080519450505050509250929050565b60008135905061203d81613613565b92915050565b60008083601f84011261205557600080fd5b8235905067ffffffffffffffff81111561206e57600080fd5b60208301915083602082028301111561208657600080fd5b9250929050565b60008151905061209c8161362a565b92915050565b6000813590506120b181613641565b92915050565b6000813590506120c681613658565b92915050565b600061016082840312156120df57600080fd5b81905092915050565b600061016082840312156120fb57600080fd5b61210560a06133dc565b9050600061211584828501612275565b600083015250602061212984828501612275565b602083015250604061213d84828501612172565b60408301525060a061215184828501612172565b60608301525061010061216684828501612172565b60808301525092915050565b60006060828403121561218457600080fd5b61218e60606133dc565b9050600061219e8482850161202e565b60008301525060206121b28482850161202e565b60208301525060406121c684828501612275565b60408301525092915050565b600060a082840312156121e457600080fd5b81905092915050565b600060a082840312156121ff57600080fd5b61220960a06133dc565b905060006122198482850161202e565b600083015250602061222d848285016120b7565b6020830152506040612241848285016120b7565b60408301525060606122558482850161229f565b6060830152506080612269848285016120a2565b60808301525092915050565b6000813590506122848161366f565b92915050565b6000815190506122998161366f565b92915050565b6000813590506122ae81613686565b92915050565b6000602082840312156122c657600080fd5b60006122d48482850161202e565b91505092915050565b600080604083850312156122f057600080fd5b60006122fe8582860161202e565b925050602061230f85828601612275565b9150509250929050565b6000806020838503121561232c57600080fd5b600083013567ffffffffffffffff81111561234657600080fd5b61235285828601612043565b92509250509250929050565b60006020828403121561237057600080fd5b600061237e8482850161208d565b91505092915050565b600080610200838503121561239b57600080fd5b60006123a9858286016120cc565b9250506101606123bb858286016121d2565b9150509250929050565b600061016082840312156123d857600080fd5b60006123e6848285016120e8565b91505092915050565b600060a0828403121561240157600080fd5b600061240f848285016121ed565b91505092915050565b60006020828403121561242a57600080fd5b60006124388482850161228a565b91505092915050565b60008060008060008060008060008060006101608c8e03121561246357600080fd5b60006124718e828f01612275565b9b505060206124828e828f0161202e565b9a505060406124938e828f01612275565b99505060606124a48e828f0161202e565b98505060806124b58e828f0161202e565b97505060a06124c68e828f01612275565b96505060c06124d78e828f0161202e565b95505060e06124e88e828f01612275565b9450506101006124fa8e828f016120b7565b93505061012061250c8e828f016120b7565b92505061014061251e8e828f0161229f565b9150509295989b509295989b9093969950565b61253a81613508565b82525050565b61254981613451565b82525050565b61256061255b82613451565b6135a7565b82525050565b61256f81613463565b82525050565b61257e8161346f565b82525050565b6125956125908261346f565b6135b9565b82525050565b6125a48161349b565b82525050565b6125bb6125b68261349b565b6135c3565b82525050565b6125ca816134a5565b82525050565b60006125db82613414565b6125e5818561342a565b93506125f5818560208601613574565b80840191505092915050565b600061260c82613409565b612616818561342a565b9350612626818560208601613574565b80840191505092915050565b61264361263e8261351a565b6135a7565b82525050565b6126528161353e565b82525050565b60006126638261341f565b61266d8185613435565b935061267d818560208601613574565b612686816135e9565b840191505092915050565b600061269e601383613435565b91507f4f524445525f414c52454144595f54414b454e000000000000000000000000006000830152602082019050919050565b60006126de601c83613446565b91507f19457468657265756d205369676e6564204d6573736167653a0a3332000000006000830152601c82019050919050565b600061271e600f83613446565b91507f616464726573732077616c6c65742c00000000000000000000000000000000006000830152600f82019050919050565b600061275e601683613435565b91507f4f524445525f414c52454144595f43414e43454c4544000000000000000000006000830152602082019050919050565b600061279e600f83613446565b91507f506172747920616666696c6961746500000000000000000000000000000000006000830152600f82019050919050565b60006127de600683613446565b91507f4f726465722800000000000000000000000000000000000000000000000000006000830152600682019050919050565b600061281e600b83613446565b91507f75696e743235362069642c0000000000000000000000000000000000000000006000830152600b82019050919050565b600061285e601183613435565b91507f4f524445525f554e415641494c41424c450000000000000000000000000000006000830152602082019050919050565b600061289e601283613435565b91507f56414c55455f4d5553545f42455f5a45524f00000000000000000000000000006000830152602082019050919050565b60006128de600c83613446565b91507f5061727479206d616b65722c00000000000000000000000000000000000000006000830152600c82019050919050565b600061291e601283613435565b91507f56414c55455f4d5553545f42455f53454e5400000000000000000000000000006000830152602082019050919050565b600061295e600183613446565b91507f29000000000000000000000000000000000000000000000000000000000000006000830152600182019050919050565b600061299e600d83613446565b91507f75696e7432353620706172616d000000000000000000000000000000000000006000830152600d82019050919050565b60006129de600683613446565b91507f50617274792800000000000000000000000000000000000000000000000000006000830152600682019050919050565b6000612a1e601383613435565b91507f494e56414c49445f44455354494e4154494f4e000000000000000000000000006000830152602082019050919050565b6000612a5e600c83613446565b91507f50617274792074616b65722c00000000000000000000000000000000000000006000830152600c82019050919050565b6000612a9e601583613446565b91507f5f494e53554646494349454e545f42414c414e434500000000000000000000006000830152601582019050919050565b6000612ade601383613435565b91507f53454e4445525f554e415554484f52495a4544000000000000000000000000006000830152602082019050919050565b6000612b1e600d83613435565b91507f4f524445525f45585049524544000000000000000000000000000000000000006000830152602082019050919050565b6000612b5e601583613435565b91507f494e56414c49445f415554485f44454c454741544500000000000000000000006000830152602082019050919050565b6000612b9e601783613446565b91507f5f494e53554646494349454e545f414c4c4f57414e43450000000000000000006000830152601782019050919050565b6000612bde601183613435565b91507f5349474e41545552455f494e56414c49440000000000000000000000000000006000830152602082019050919050565b6000612c1e601383613435565b91507f494e56414c49445f415554485f455850495259000000000000000000000000006000830152602082019050919050565b6000612c5e600f83613446565b91507f75696e74323536206578706972792c00000000000000000000000000000000006000830152600f82019050919050565b6000612c9e601383613435565b91507f5349474e45525f554e415554484f52495a4544000000000000000000000000006000830152602082019050919050565b6000612cde600e83613446565b91507f6164647265737320746f6b656e2c0000000000000000000000000000000000006000830152600e82019050919050565b612d1a816134f1565b82525050565b612d31612d2c826134f1565b6135df565b82525050565b612d40816134fb565b82525050565b6000612d52828d612584565b600182019150612d62828c612632565b601482019150612d72828b612d20565b602082019150612d82828a61254f565b601482019150612d928289612d20565b602082019150612da2828861254f565b601482019150612db2828761254f565b601482019150612dc28286612d20565b602082019150612dd2828561254f565b601482019150612de28284612d20565b6020820191508190509b9a5050505050505050505050565b6000612e0682846125d0565b9150612e1182612a91565b915081905092915050565b6000612e2882846125d0565b9150612e3382612b91565b915081905092915050565b6000612e4a8286612601565b9150612e5682856125aa565b602082019150612e6682846125aa565b602082019150819050949350505050565b6000612e82826126d1565b9150612e8e82846125aa565b60208201915081905092915050565b6000612ea8826127d1565b9150612eb382612811565b9150612ebe82612c51565b9150612ec9826128d1565b9150612ed482612a51565b9150612edf82612791565b9150612eea82612951565b9150612ef5826129d1565b9150612f0082612711565b9150612f0b82612cd1565b9150612f1682612991565b9150612f2182612951565b9150819050919050565b6000612f36826129d1565b9150612f4182612711565b9150612f4c82612cd1565b9150612f5782612991565b9150612f6282612951565b9150819050919050565b6000602082019050612f816000830184612540565b92915050565b6000604082019050612f9c6000830185612540565b612fa96020830184612540565b9392505050565b6000606082019050612fc56000830186612540565b612fd26020830185612540565b612fdf6040830184612d11565b949350505050565b6000602082019050612ffc6000830184612566565b92915050565b60006020820190506130176000830184612575565b92915050565b6000608082019050613032600083018761259b565b61303f6020830186612540565b61304c6040830185612540565b6130596060830184612d11565b95945050505050565b600060c082019050613077600083018961259b565b6130846020830188612d11565b6130916040830187612d11565b61309e606083018661259b565b6130ab608083018561259b565b6130b860a083018461259b565b979650505050505050565b60006080820190506130d8600083018761259b565b6130e56020830186612d37565b6130f2604083018561259b565b6130ff606083018461259b565b95945050505050565b600060208201905061311d60008301846125c1565b92915050565b6000602082019050818103600083015261313d8184612658565b905092915050565b6000602082019050818103600083015261315e81612691565b9050919050565b6000602082019050818103600083015261317e81612751565b9050919050565b6000602082019050818103600083015261319e81612851565b9050919050565b600060208201905081810360008301526131be81612891565b9050919050565b600060208201905081810360008301526131de81612911565b9050919050565b600060208201905081810360008301526131fe81612a11565b9050919050565b6000602082019050818103600083015261321e81612ad1565b9050919050565b6000602082019050818103600083015261323e81612b11565b9050919050565b6000602082019050818103600083015261325e81612b51565b9050919050565b6000602082019050818103600083015261327e81612bd1565b9050919050565b6000602082019050818103600083015261329e81612c11565b9050919050565b600060208201905081810360008301526132be81612c91565b9050919050565b60006020820190506132da6000830184612d11565b92915050565b6000610100820190506132f6600083018b612d11565b613303602083018a612540565b6133106040830189612540565b61331d6060830188612d11565b61332a6080830187612540565b61333760a0830186612531565b61334460c0830185612649565b61335160e0830184612531565b9998505050505050505050565b600061010082019050613374600083018b612d11565b613381602083018a612540565b61338e6040830189612540565b61339b6060830188612d11565b6133a86080830187612540565b6133b560a0830186612540565b6133c260c0830185612d11565b6133cf60e0830184612540565b9998505050505050505050565b6000604051905081810181811067ffffffffffffffff821117156133ff57600080fd5b8060405250919050565b600081519050919050565b600081519050919050565b600081519050919050565b600081905092915050565b600082825260208201905092915050565b600081905092915050565b600061345c826134d1565b9050919050565b60008115159050919050565b60007fff0000000000000000000000000000000000000000000000000000000000000082169050919050565b6000819050919050565b60007fffffffff0000000000000000000000000000000000000000000000000000000082169050919050565b600073ffffffffffffffffffffffffffffffffffffffff82169050919050565b6000819050919050565b600060ff82169050919050565b600061351382613550565b9050919050565b60006135258261352c565b9050919050565b6000613537826134d1565b9050919050565b6000613549826134f1565b9050919050565b600061355b82613562565b9050919050565b600061356d826134d1565b9050919050565b60005b83811015613592578082015181840152602081019050613577565b838111156135a1576000848401525b50505050565b60006135b2826135cd565b9050919050565b6000819050919050565b6000819050919050565b60006135d8826135fa565b9050919050565b6000819050919050565b6000601f19601f8301169050919050565b60006c0100000000000000000000000082029050919050565b61361c81613451565b811461362757600080fd5b50565b61363381613463565b811461363e57600080fd5b50565b61364a8161346f565b811461365557600080fd5b50565b6136618161349b565b811461366c57600080fd5b50565b613678816134f1565b811461368357600080fd5b50565b61368f816134fb565b811461369a57600080fd5b5056fea265627a7a7230582035b18fdda0e2e8b0dec3a34aeb5ebcacbab7c700566b370edcadafd4d91abece6c6578706572696d656e74616cf50037",
  "source": "pragma solidity 0.5.8;\npragma experimental ABIEncoderV2;\n\nimport \"./lib/Authorizable.sol\";\nimport \"./lib/Transferable.sol\";\nimport \"./lib/Verifiable.sol\";\n\n\n/**\n* @title Atomic swap contract used by the Swap Protocol\n*/\ncontract Swap is Authorizable, Transferable, Verifiable {\n\n  byte constant private OPEN = 0x00;\n  byte constant private TAKEN = 0x01;\n  byte constant private CANCELED = 0x02;\n\n  // Maps makers to orders by ID as TAKEN (0x01) or CANCELED (0x02)\n  mapping (address => mapping (uint256 => byte)) public makerOrderStatus;\n\n  // Emitted on Swap\n  event Swap(\n    uint256 indexed id,\n    address indexed makerAddress,\n    uint256 makerParam,\n    address makerToken,\n    address takerAddress,\n    uint256 takerParam,\n    address takerToken,\n    address affiliateAddress,\n    uint256 affiliateParam,\n    address affiliateToken\n  );\n\n  // Emitted on Cancel\n  event Cancel(\n    uint256 indexed id,\n    address indexed makerAddress\n  );\n\n  /**\n    * @notice Atomic Token Swap\n    * @dev Determines type (ERC-20 or ERC-721) with ERC-165\n    *\n    * @param order Order\n    * @param signature Signature\n    */\n  function swap(\n    Order calldata order,\n    Signature calldata signature\n  )\n    external payable\n  {\n\n    // Ensure the order signer is authorized\n    require(isAuthorized(order.maker.wallet, signature.signer),\n      \"SIGNER_UNAUTHORIZED\");\n\n    // Ensure the order signature is valid\n    require(isValid(order, signature),\n      \"SIGNATURE_INVALID\");\n\n    // Ensure the order has not already been taken\n    require(makerOrderStatus[order.maker.wallet][order.id] != TAKEN,\n      \"ORDER_ALREADY_TAKEN\");\n\n    // Ensure the order has not already been canceled\n    require(makerOrderStatus[order.maker.wallet][order.id] != CANCELED,\n      \"ORDER_ALREADY_CANCELED\");\n\n    // Ensure the order is not expired\n    require(order.expiry > block.timestamp,\n      \"ORDER_EXPIRED\");\n\n    // Ensure the order sender is authorized\n    if (msg.sender != order.taker.wallet) {\n      require(isAuthorized(order.taker.wallet, msg.sender),\n        \"SENDER_UNAUTHORIZED\");\n    }\n\n    // Mark the order taken (0x01)\n    makerOrderStatus[order.maker.wallet][order.id] = TAKEN;\n\n    // A null taker token is an order for ether\n    if (order.taker.token == address(0)) {\n\n      // Ensure the ether sent matches the taker param\n      require(msg.value == order.taker.param,\n        \"VALUE_MUST_BE_SENT\");\n\n      // Transfer ether from taker to maker\n      send(order.maker.wallet, msg.value);\n\n    } else {\n\n      // Ensure the value sent is zero\n      require(msg.value == 0,\n        \"VALUE_MUST_BE_ZERO\");\n\n      // Transfer token from taker to maker\n      safeTransferAny(\n        \"TAKER\",\n        order.taker.wallet,\n        order.maker.wallet,\n        order.taker.param,\n        order.taker.token\n      );\n\n    }\n\n    // Transfer token from maker to taker\n    safeTransferAny(\n      \"MAKER\",\n      order.maker.wallet,\n      order.taker.wallet,\n      order.maker.param,\n      order.maker.token\n    );\n\n    // Transfer token from maker to affiliate if specified\n    if (order.affiliate.wallet != address(0)) {\n      safeTransferAny(\n        \"MAKER\",\n        order.maker.wallet,\n        order.affiliate.wallet,\n        order.affiliate.param,\n        order.affiliate.token\n      );\n    }\n\n    emit Swap(order.id,\n      order.maker.wallet, order.maker.param, order.maker.token,\n      order.taker.wallet, order.taker.param, order.taker.token,\n      order.affiliate.wallet, order.affiliate.param, order.affiliate.token\n    );\n  }\n\n  /**\n    * @notice Atomic Token Swap (Light)\n    * @dev Determines type (ERC-20 or ERC-721) with ERC-165\n    *\n    * @param id uint256\n    * @param makerWallet address\n    * @param makerParam uint256\n    * @param makerToken address\n    * @param takerWallet address\n    * @param takerParam uint256\n    * @param takerToken address\n    * @param expiry uint256\n    * @param r bytes32\n    * @param s bytes32\n    * @param v uint8\n    */\n  function swap(\n    uint256 id,\n    address makerWallet,\n    uint256 makerParam,\n    address makerToken,\n    address takerWallet,\n    uint256 takerParam,\n    address takerToken,\n    uint256 expiry,\n    bytes32 r,\n    bytes32 s,\n    uint8 v\n  )\n    external payable\n  {\n\n    // Ensure the order is not expired\n    require(expiry > block.timestamp,\n      \"ORDER_EXPIRED\");\n\n    // Ensure the order has not already been taken or canceled\n    require(makerOrderStatus[makerWallet][id] == OPEN,\n      \"ORDER_UNAVAILABLE\");\n\n    // Ensure the order signature is valid\n    require(isValidSimple(\n      id,\n      makerWallet,\n      makerParam,\n      makerToken,\n      takerWallet,\n      takerParam,\n      takerToken,\n      expiry,\n      r, s, v\n    ), \"SIGNATURE_INVALID\");\n\n    // Mark the order taken (0x01).\n    makerOrderStatus[makerWallet][id] = TAKEN;\n\n    // A null taker token is an order for ether\n    if (takerToken == address(0)) {\n\n      // Ensure the ether sent matches the taker param\n      require(msg.value == takerParam,\n        \"VALUE_MUST_BE_SENT\");\n\n      // Transfer ether from taker to maker\n      send(makerWallet, msg.value);\n\n    } else {\n\n      // Ensure the value sent is zero\n      require(msg.value == 0,\n        \"VALUE_MUST_BE_ZERO\");\n\n      // Transfer token from taker to maker\n      transferAny(takerToken, takerWallet, makerWallet, takerParam);\n\n    }\n\n    // Transfer token from maker to taker\n    transferAny(makerToken, makerWallet, takerWallet, makerParam);\n\n    emit Swap(id,\n      makerWallet, makerParam, makerToken,\n      takerWallet, takerParam, takerToken,\n      address(0), 0, address(0)\n    );\n\n  }\n\n  /** @notice Cancel a batch of orders.\n    * @dev Canceled orders are marked with byte 0x02.\n    * @param ids uint256[]\n    */\n  function cancel(uint256[] calldata ids) external {\n    for (uint256 i = 0; i < ids.length; i++) {\n      if (makerOrderStatus[msg.sender][ids[i]] == OPEN) {\n        makerOrderStatus[msg.sender][ids[i]] = CANCELED;\n        emit Cancel(ids[i], msg.sender);\n      }\n    }\n  }\n\n}\n",
  "sourcePath": "/Users/dmosites/Projects/swap-contract/contracts/Swap.sol",
  "compiler": {
    "name": "solc",
    "version": "0.5.8+commit.23d335f2.Emscripten.clang"
  },
  "schemaVersion": "3.0.1",
  "updatedAt": "2019-05-17T02:03:03.198Z",
  "devdoc": {
    "methods": {
      "cancel(uint256[])": {
        "details": "Canceled orders are marked with byte 0x02.",
        "params": {
          "ids": "uint256[]"
        }
      },
      "swap((uint256,uint256,(address,address,uint256),(address,address,uint256),(address,address,uint256)),(address,bytes32,bytes32,uint8,bytes1))": {
        "details": "Determines type (ERC-20 or ERC-721) with ERC-165",
        "params": {
          "order": "Order",
          "signature": "Signature"
        }
      },
      "swap(uint256,address,uint256,address,address,uint256,address,uint256,bytes32,bytes32,uint8)": {
        "details": "Determines type (ERC-20 or ERC-721) with ERC-165",
        "params": {
          "expiry": "uint256",
          "id": "uint256",
          "makerParam": "uint256",
          "makerToken": "address",
          "makerWallet": "address",
          "r": "bytes32",
          "s": "bytes32",
          "takerParam": "uint256",
          "takerToken": "address",
          "takerWallet": "address",
          "v": "uint8"
        }
      }
    },
    "title": "Atomic swap contract used by the Swap Protocol"
  },
  "userdoc": {
    "methods": {
      "cancel(uint256[])": {
        "notice": "Cancel a batch of orders."
      },
      "swap((uint256,uint256,(address,address,uint256),(address,address,uint256),(address,address,uint256)),(address,bytes32,bytes32,uint8,bytes1))": {
        "notice": "Atomic Token Swap"
      },
      "swap(uint256,address,uint256,address,address,uint256,address,uint256,bytes32,bytes32,uint8)": {
        "notice": "Atomic Token Swap (Light)"
      }
    }
  }
}