{
  "contractName": "Swap",
  "abi": [
    {
      "constant": true,
      "inputs": [
        {
          "name": "",
          "type": "address"
        },
        {
          "name": "",
          "type": "uint256"
        }
      ],
      "name": "makerOrderStatus",
      "outputs": [
        {
          "name": "",
          "type": "bytes1"
        }
      ],
      "payable": false,
      "stateMutability": "view",
      "type": "function"
    },
    {
      "constant": false,
      "inputs": [
        {
          "name": "delegate",
          "type": "address"
        }
      ],
      "name": "revoke",
      "outputs": [
        {
          "name": "",
          "type": "bool"
        }
      ],
      "payable": false,
      "stateMutability": "nonpayable",
      "type": "function"
    },
    {
      "constant": false,
      "inputs": [
        {
          "name": "delegate",
          "type": "address"
        },
        {
          "name": "expiry",
          "type": "uint256"
        }
      ],
      "name": "authorize",
      "outputs": [
        {
          "name": "",
          "type": "bool"
        }
      ],
      "payable": false,
      "stateMutability": "nonpayable",
      "type": "function"
    },
    {
      "anonymous": false,
      "inputs": [
        {
          "indexed": true,
          "name": "id",
          "type": "uint256"
        },
        {
          "indexed": true,
          "name": "makerAddress",
          "type": "address"
        },
        {
          "indexed": false,
          "name": "makerParam",
          "type": "uint256"
        },
        {
          "indexed": false,
          "name": "makerToken",
          "type": "address"
        },
        {
          "indexed": false,
          "name": "takerAddress",
          "type": "address"
        },
        {
          "indexed": false,
          "name": "takerParam",
          "type": "uint256"
        },
        {
          "indexed": false,
          "name": "takerToken",
          "type": "address"
        },
        {
          "indexed": false,
          "name": "affiliateAddress",
          "type": "address"
        },
        {
          "indexed": false,
          "name": "affiliateParam",
          "type": "uint256"
        },
        {
          "indexed": false,
          "name": "affiliateToken",
          "type": "address"
        }
      ],
      "name": "Swap",
      "type": "event"
    },
    {
      "anonymous": false,
      "inputs": [
        {
          "indexed": true,
          "name": "id",
          "type": "uint256"
        },
        {
          "indexed": true,
          "name": "makerAddress",
          "type": "address"
        }
      ],
      "name": "Cancel",
      "type": "event"
    },
    {
      "anonymous": false,
      "inputs": [
        {
          "indexed": true,
          "name": "approverAddress",
          "type": "address"
        },
        {
          "indexed": true,
          "name": "delegateAddress",
          "type": "address"
        },
        {
          "indexed": false,
          "name": "expiry",
          "type": "uint256"
        }
      ],
      "name": "Authorization",
      "type": "event"
    },
    {
      "anonymous": false,
      "inputs": [
        {
          "indexed": true,
          "name": "approverAddress",
          "type": "address"
        },
        {
          "indexed": true,
          "name": "delegateAddress",
          "type": "address"
        }
      ],
      "name": "Revocation",
      "type": "event"
    },
    {
      "constant": false,
      "inputs": [
        {
          "components": [
            {
              "name": "id",
              "type": "uint256"
            },
            {
              "name": "expiry",
              "type": "uint256"
            },
            {
              "components": [
                {
                  "name": "wallet",
                  "type": "address"
                },
                {
                  "name": "token",
                  "type": "address"
                },
                {
                  "name": "param",
                  "type": "uint256"
                }
              ],
              "name": "maker",
              "type": "tuple"
            },
            {
              "components": [
                {
                  "name": "wallet",
                  "type": "address"
                },
                {
                  "name": "token",
                  "type": "address"
                },
                {
                  "name": "param",
                  "type": "uint256"
                }
              ],
              "name": "taker",
              "type": "tuple"
            },
            {
              "components": [
                {
                  "name": "wallet",
                  "type": "address"
                },
                {
                  "name": "token",
                  "type": "address"
                },
                {
                  "name": "param",
                  "type": "uint256"
                }
              ],
              "name": "affiliate",
              "type": "tuple"
            }
          ],
          "name": "order",
          "type": "tuple"
        },
        {
          "components": [
            {
              "name": "signer",
              "type": "address"
            },
            {
              "name": "r",
              "type": "bytes32"
            },
            {
              "name": "s",
              "type": "bytes32"
            },
            {
              "name": "v",
              "type": "uint8"
            },
            {
              "name": "version",
              "type": "bytes1"
            }
          ],
          "name": "signature",
          "type": "tuple"
        }
      ],
      "name": "swap",
      "outputs": [],
      "payable": true,
      "stateMutability": "payable",
      "type": "function"
    },
    {
      "constant": false,
      "inputs": [
        {
          "name": "id",
          "type": "uint256"
        },
        {
          "name": "makerWallet",
          "type": "address"
        },
        {
          "name": "makerParam",
          "type": "uint256"
        },
        {
          "name": "makerToken",
          "type": "address"
        },
        {
          "name": "takerWallet",
          "type": "address"
        },
        {
          "name": "takerParam",
          "type": "uint256"
        },
        {
          "name": "takerToken",
          "type": "address"
        },
        {
          "name": "expiry",
          "type": "uint256"
        },
        {
          "name": "r",
          "type": "bytes32"
        },
        {
          "name": "s",
          "type": "bytes32"
        },
        {
          "name": "v",
          "type": "uint8"
        }
      ],
      "name": "swapSimple",
      "outputs": [],
      "payable": true,
      "stateMutability": "payable",
      "type": "function"
    },
    {
      "constant": false,
      "inputs": [
        {
          "name": "ids",
          "type": "uint256[]"
        }
      ],
      "name": "cancel",
      "outputs": [],
      "payable": false,
      "stateMutability": "nonpayable",
      "type": "function"
    }
  ],
  "bytecode": "0x60806040526040516020016200001590620002b9565b604051602081830303815290604052805190602001206040518060400160405280600481526020017f5357415000000000000000000000000000000000000000000000000000000000815250604051620000709190620002a0565b60405180910390206040518060400160405280600181526020017f3200000000000000000000000000000000000000000000000000000000000000815250604051620000bd9190620002a0565b604051809103902030604051602001620000db949392919062000304565b60405160208183030381529060405280519060200120600181905550620003fa565b620001088162000372565b82525050565b60006200011b8262000351565b6200012781856200035c565b935062000139818560208601620003c4565b80840191505092915050565b62000150816200039c565b82525050565b600062000165600c8362000367565b91507f737472696e67206e616d652c00000000000000000000000000000000000000006000830152600c82019050919050565b6000620001a760198362000367565b91507f6164647265737320766572696679696e67436f6e7472616374000000000000006000830152601982019050919050565b6000620001e960018362000367565b91507f29000000000000000000000000000000000000000000000000000000000000006000830152600182019050919050565b60006200022b600f8362000367565b91507f737472696e672076657273696f6e2c00000000000000000000000000000000006000830152600f82019050919050565b60006200026d600d8362000367565b91507f454950373132446f6d61696e28000000000000000000000000000000000000006000830152600d82019050919050565b6000620002ae82846200010e565b915081905092915050565b6000620002c6826200025e565b9150620002d38262000156565b9150620002e0826200021c565b9150620002ed8262000198565b9150620002fa82620001da565b9150819050919050565b60006080820190506200031b6000830187620000fd565b6200032a6020830186620000fd565b620003396040830185620000fd565b62000348606083018462000145565b95945050505050565b600081519050919050565b600081905092915050565b600081905092915050565b6000819050919050565b600073ffffffffffffffffffffffffffffffffffffffff82169050919050565b6000620003a982620003b0565b9050919050565b6000620003bd826200037c565b9050919050565b60005b83811015620003e4578082015181840152602081019050620003c7565b83811115620003f4576000848401525b50505050565b6133c5806200040a6000396000f3fe6080604052600436106100545760003560e01c8062f785cb146100595780632e340823146100755780633987f6a41461009e57806374a8f103146100db5780637e871a8114610118578063c1dbd9b214610134575b600080fd5b610073600480360361006e919081019061213b565b610171565b005b34801561008157600080fd5b5061009c60048036036100979190810190612013565b610524565b005b3480156100aa57600080fd5b506100c560048036036100c09190810190611fd7565b6106dc565b6040516100d29190612cfc565b60405180910390f35b3480156100e757600080fd5b5061010260048036036100fd9190810190611fae565b61070b565b60405161010f9190612ce1565b60405180910390f35b610132600480360361012d9190810190612081565b6107eb565b005b34801561014057600080fd5b5061015b60048036036101569190810190611fd7565b611015565b6040516101689190612ce1565b60405180910390f35b4284116101b3576040517f08c379a00000000000000000000000000000000000000000000000000000000081526004016101aa90612f1f565b60405180910390fd5b600060f81b7effffffffffffffffffffffffffffffffffffffffffffffffffffffffffffff1916600260008c73ffffffffffffffffffffffffffffffffffffffff1673ffffffffffffffffffffffffffffffffffffffff16815260200190815260200160002060008d815260200190815260200160002060009054906101000a900460f81b7effffffffffffffffffffffffffffffffffffffffffffffffffffffffffffff19161461029a576040517f08c379a000000000000000000000000000000000000000000000000000000000815260040161029190612e7f565b60405180910390fd5b8673ffffffffffffffffffffffffffffffffffffffff163373ffffffffffffffffffffffffffffffffffffffff1614610317576102d787336111b7565b610316576040517f08c379a000000000000000000000000000000000000000000000000000000000815260040161030d90612eff565b60405180910390fd5b5b61032a8b8b8b8b8b8b8b8b8b8b8b61127d565b610369576040517f08c379a000000000000000000000000000000000000000000000000000000000815260040161036090612f5f565b60405180910390fd5b600160f81b600260008c73ffffffffffffffffffffffffffffffffffffffff1673ffffffffffffffffffffffffffffffffffffffff16815260200190815260200160002060008d815260200190815260200160002060006101000a81548160ff021916908360f81c0217905550600073ffffffffffffffffffffffffffffffffffffffff168573ffffffffffffffffffffffffffffffffffffffff16141561045c5785341461044d576040517f08c379a000000000000000000000000000000000000000000000000000000000815260040161044490612ebf565b60405180910390fd5b6104578a3461136f565b6104ac565b6000341461049f576040517f08c379a000000000000000000000000000000000000000000000000000000000815260040161049690612e9f565b60405180910390fd5b6104ab85888c896113c0565b5b6104b8888b898c6113c0565b8973ffffffffffffffffffffffffffffffffffffffff168b7fe79dabf197b61e5e1631a9684aa64f31a7e943afbece34a2980ad3b4bb21a6808b8b8b8b8b600080600060405161050f989796959493929190612fda565b60405180910390a35050505050505050505050565b60008090505b828290508110156106d757600060f81b7effffffffffffffffffffffffffffffffffffffffffffffffffffffffffffff1916600260003373ffffffffffffffffffffffffffffffffffffffff1673ffffffffffffffffffffffffffffffffffffffff16815260200190815260200160002060008585858181106105a957fe5b90506020020135815260200190815260200160002060009054906101000a900460f81b7effffffffffffffffffffffffffffffffffffffffffffffffffffffffffffff191614156106ca57600260f81b600260003373ffffffffffffffffffffffffffffffffffffffff1673ffffffffffffffffffffffffffffffffffffffff168152602001908152602001600020600085858581811061064657fe5b90506020020135815260200190815260200160002060006101000a81548160ff021916908360f81c02179055503373ffffffffffffffffffffffffffffffffffffffff1683838381811061069657fe5b905060200201357f8dd3c361eb2366ff27c2db0eb07b9261f1d052570742ab8c9a0c326f37aa576d60405160405180910390a35b808060010191505061052a565b505050565b60026020528160005260406000206020528060005260406000206000915091509054906101000a900460f81b81565b60008060003373ffffffffffffffffffffffffffffffffffffffff1673ffffffffffffffffffffffffffffffffffffffff16815260200190815260200160002060008373ffffffffffffffffffffffffffffffffffffffff1673ffffffffffffffffffffffffffffffffffffffff168152602001908152602001600020600090558173ffffffffffffffffffffffffffffffffffffffff163373ffffffffffffffffffffffffffffffffffffffff167f6461d55e3edc9ce5c9c80d7bfb1a6fbcb71312efa790a6687225eadf3bdaffaf60405160405180910390a3919050565b42826020013511610831576040517f08c379a000000000000000000000000000000000000000000000000000000000815260040161082890612f1f565b60405180910390fd5b600160f81b7effffffffffffffffffffffffffffffffffffffffffffffffffffffffffffff1916600260008460400160000160206108729190810190611fae565b73ffffffffffffffffffffffffffffffffffffffff1673ffffffffffffffffffffffffffffffffffffffff16815260200190815260200160002060008460000135815260200190815260200160002060009054906101000a900460f81b7effffffffffffffffffffffffffffffffffffffffffffffffffffffffffffff19161415610932576040517f08c379a000000000000000000000000000000000000000000000000000000000815260040161092990612e3f565b60405180910390fd5b600260f81b7effffffffffffffffffffffffffffffffffffffffffffffffffffffffffffff1916600260008460400160000160206109739190810190611fae565b73ffffffffffffffffffffffffffffffffffffffff1673ffffffffffffffffffffffffffffffffffffffff16815260200190815260200160002060008460000135815260200190815260200160002060009054906101000a900460f81b7effffffffffffffffffffffffffffffffffffffffffffffffffffffffffffff19161415610a33576040517f08c379a0000000000000000000000000000000000000000000000000000000008152600401610a2a90612e5f565b60405180910390fd5b8160a0016000016020610a499190810190611fae565b73ffffffffffffffffffffffffffffffffffffffff163373ffffffffffffffffffffffffffffffffffffffff1614610ada57610a9a8260a0016000016020610a949190810190611fae565b336111b7565b610ad9576040517f08c379a0000000000000000000000000000000000000000000000000000000008152600401610ad090612eff565b60405180910390fd5b5b610b0b826040016000016020610af39190810190611fae565b826000016020610b069190810190611fae565b6111b7565b610b4a576040517f08c379a0000000000000000000000000000000000000000000000000000000008152600401610b4190612f9f565b60405180910390fd5b610b7482803603610b5e91908101906120bf565b82803603610b6f91908101906120e9565b611508565b610bb3576040517f08c379a0000000000000000000000000000000000000000000000000000000008152600401610baa90612f5f565b60405180910390fd5b600160f81b60026000846040016000016020610bd29190810190611fae565b73ffffffffffffffffffffffffffffffffffffffff1673ffffffffffffffffffffffffffffffffffffffff16815260200190815260200160002060008460000135815260200190815260200160002060006101000a81548160ff021916908360f81c0217905550600073ffffffffffffffffffffffffffffffffffffffff168260a0016020016020610c679190810190611fae565b73ffffffffffffffffffffffffffffffffffffffff161415610cf0578160a001604001353414610ccc576040517f08c379a0000000000000000000000000000000000000000000000000000000008152600401610cc390612ebf565b60405180910390fd5b610ceb826040016000016020610ce59190810190611fae565b3461136f565b610dbc565b60003414610d33576040517f08c379a0000000000000000000000000000000000000000000000000000000008152600401610d2a90612e9f565b60405180910390fd5b610dbb6040518060400160405280600581526020017f54414b45520000000000000000000000000000000000000000000000000000008152508360a0016000016020610d829190810190611fae565b846040016000016020610d989190810190611fae565b8560a001604001358660a0016020016020610db69190810190611fae565b61171b565b5b610e446040518060400160405280600581526020017f4d414b4552000000000000000000000000000000000000000000000000000000815250836040016000016020610e0b9190810190611fae565b8460a0016000016020610e219190810190611fae565b8560400160400135866040016020016020610e3f9190810190611fae565b61171b565b600073ffffffffffffffffffffffffffffffffffffffff1682610100016000016020610e739190810190611fae565b73ffffffffffffffffffffffffffffffffffffffff1614610f1a57610f196040518060400160405280600581526020017f4d414b4552000000000000000000000000000000000000000000000000000000815250836040016000016020610edd9190810190611fae565b84610100016000016020610ef49190810190611fae565b85610100016040013586610100016020016020610f149190810190611fae565b61171b565b5b816040016000016020610f309190810190611fae565b73ffffffffffffffffffffffffffffffffffffffff1682600001357fe79dabf197b61e5e1631a9684aa64f31a7e943afbece34a2980ad3b4bb21a6808460400160400135856040016020016020610f8a9190810190611fae565b8660a0016000016020610fa09190810190611fae565b8760a001604001358860a0016020016020610fbe9190810190611fae565b89610100016000016020610fd59190810190611fae565b8a61010001604001358b610100016020016020610ff59190810190611fae565b604051611009989796959493929190613058565b60405180910390a35050565b60008273ffffffffffffffffffffffffffffffffffffffff163373ffffffffffffffffffffffffffffffffffffffff161415611086576040517f08c379a000000000000000000000000000000000000000000000000000000000815260040161107d90612f3f565b60405180910390fd5b4282116110c8576040517f08c379a00000000000000000000000000000000000000000000000000000000081526004016110bf90612f7f565b60405180910390fd5b816000803373ffffffffffffffffffffffffffffffffffffffff1673ffffffffffffffffffffffffffffffffffffffff16815260200190815260200160002060008573ffffffffffffffffffffffffffffffffffffffff1673ffffffffffffffffffffffffffffffffffffffff168152602001908152602001600020819055508273ffffffffffffffffffffffffffffffffffffffff163373ffffffffffffffffffffffffffffffffffffffff167f8a1c60ca1a16acd72d841a74fa5905de3938132b0b2ff6cb385a7e69af345fc9846040516111a59190612fbf565b60405180910390a36001905092915050565b60008173ffffffffffffffffffffffffffffffffffffffff168373ffffffffffffffffffffffffffffffffffffffff1614156111f65760019050611277565b426000808573ffffffffffffffffffffffffffffffffffffffff1673ffffffffffffffffffffffffffffffffffffffff16815260200190815260200160002060008473ffffffffffffffffffffffffffffffffffffffff1673ffffffffffffffffffffffffffffffffffffffff168152602001908152602001600020541190505b92915050565b60006001600060f81b308e8e8e8e8e8e8e8e6040516020016112a89a99989796959493929190612a40565b604051602081830303815290604052805190602001206040516020016112ce9190612b71565b60405160208183030381529060405280519060200120838686604051600081526020016040526040516113049493929190612dbd565b6020604051602081039080840390855afa158015611326573d6000803e3d6000fd5b5050506020604051035173ffffffffffffffffffffffffffffffffffffffff168b73ffffffffffffffffffffffffffffffffffffffff161490509b9a5050505050505050505050565b60008290508073ffffffffffffffffffffffffffffffffffffffff166108fc839081150290604051600060405180830381858888f193505050501580156113ba573d6000803e3d6000fd5b50505050565b6113f06380ac58cd60e01b8573ffffffffffffffffffffffffffffffffffffffff16611ab290919063ffffffff16565b15611469578373ffffffffffffffffffffffffffffffffffffffff166342842e0e8484846040518463ffffffff1660e01b815260040161143293929190612caa565b600060405180830381600087803b15801561144c57600080fd5b505af1158015611460573d6000803e3d6000fd5b50505050611502565b8373ffffffffffffffffffffffffffffffffffffffff166323b872dd8484846040518463ffffffff1660e01b81526004016114a693929190612caa565b602060405180830381600087803b1580156114c057600080fd5b505af11580156114d4573d6000803e3d6000fd5b505050506040513d601f19601f820116820180604052506114f89190810190612058565b61150157600080fd5b5b50505050565b6000600160f81b7effffffffffffffffffffffffffffffffffffffffffffffffffffffffffffff191682608001517effffffffffffffffffffffffffffffffffffffffffffffffffffffffffffff191614156115fa57600161156984611ad7565b836060015184602001518560400151604051600081526020016040526040516115959493929190612dbd565b6020604051602081039080840390855afa1580156115b7573d6000803e3d6000fd5b5050506020604051035173ffffffffffffffffffffffffffffffffffffffff16826000015173ffffffffffffffffffffffffffffffffffffffff16149050611715565b604560f81b7effffffffffffffffffffffffffffffffffffffffffffffffffffffffffffff191682608001517effffffffffffffffffffffffffffffffffffffffffffffffffffffffffffff1916141561171057600161165984611ad7565b6040516020016116699190612b71565b60405160208183030381529060405280519060200120836060015184602001518560400151604051600081526020016040526040516116ab9493929190612dbd565b6020604051602081039080840390855afa1580156116cd573d6000803e3d6000fd5b5050506020604051035173ffffffffffffffffffffffffffffffffffffffff16826000015173ffffffffffffffffffffffffffffffffffffffff16149050611715565b600090505b92915050565b61174b6380ac58cd60e01b8273ffffffffffffffffffffffffffffffffffffffff16611ab290919063ffffffff16565b156117c4578073ffffffffffffffffffffffffffffffffffffffff166342842e0e8585856040518463ffffffff1660e01b815260040161178d93929190612caa565b600060405180830381600087803b1580156117a757600080fd5b505af11580156117bb573d6000803e3d6000fd5b50505050611aab565b600073ffffffffffffffffffffffffffffffffffffffff168373ffffffffffffffffffffffffffffffffffffffff161415611834576040517f08c379a000000000000000000000000000000000000000000000000000000000815260040161182b90612edf565b60405180910390fd5b818173ffffffffffffffffffffffffffffffffffffffff166370a08231866040518263ffffffff1660e01b815260040161186e9190612c66565b60206040518083038186803b15801561188657600080fd5b505afa15801561189a573d6000803e3d6000fd5b505050506040513d601f19601f820116820180604052506118be9190810190612112565b1015856040516020016118d19190612af4565b60405160208183030381529060405290611921576040517f08c379a00000000000000000000000000000000000000000000000000000000081526004016119189190612e1d565b60405180910390fd5b50818173ffffffffffffffffffffffffffffffffffffffff1663dd62ed3e86306040518363ffffffff1660e01b815260040161195e929190612c81565b60206040518083038186803b15801561197657600080fd5b505afa15801561198a573d6000803e3d6000fd5b505050506040513d601f19601f820116820180604052506119ae9190810190612112565b1015856040516020016119c19190612b16565b60405160208183030381529060405290611a11576040517f08c379a0000000000000000000000000000000000000000000000000000000008152600401611a089190612e1d565b60405180910390fd5b508073ffffffffffffffffffffffffffffffffffffffff166323b872dd8585856040518463ffffffff1660e01b8152600401611a4f93929190612caa565b602060405180830381600087803b158015611a6957600080fd5b505af1158015611a7d573d6000803e3d6000fd5b505050506040513d601f19601f82011682018060405250611aa19190810190612058565b611aaa57600080fd5b5b5050505050565b6000611abd83611bc2565b8015611acf5750611ace8383611bf6565b5b905092915050565b60006040518060400160405280600281526020017f1901000000000000000000000000000000000000000000000000000000000000815250600154604051602001611b2190612b97565b6040516020818303038152906040528051906020012084600001518560200151611b4e8760400151611c1d565b611b5b8860600151611c1d565b611b688960800151611c1d565b604051602001611b7d96959493929190612d5c565b60405160208183030381529060405280519060200120604051602001611ba593929190612b38565b604051602081830303815290604052805190602001209050919050565b6000611bd5826301ffc9a760e01b611bf6565b8015611bef5750611bed8263ffffffff60e01b611bf6565b155b9050919050565b6000806000611c058585611c83565b91509150818015611c135750805b9250505092915050565b6000604051602001611c2e90612c25565b60405160208183030381529060405280519060200120826000015183602001518460400151604051602001611c669493929190612d17565b604051602081830303815290604052805190602001209050919050565b60008060606301ffc9a760e01b84604051602401611ca19190612e02565b604051602081830303815290604052907bffffffffffffffffffffffffffffffffffffffffffffffffffffffff19166020820180517bffffffffffffffffffffffffffffffffffffffffffffffffffffffff838183161783525050505090508060200181516040516000815260208183858b617530fa955080519450505050509250929050565b600081359050611d3781613301565b92915050565b60008083601f840112611d4f57600080fd5b8235905067ffffffffffffffff811115611d6857600080fd5b602083019150836020820283011115611d8057600080fd5b9250929050565b600081519050611d9681613318565b92915050565b600081359050611dab8161332f565b92915050565b600081359050611dc081613346565b92915050565b60006101608284031215611dd957600080fd5b81905092915050565b60006101608284031215611df557600080fd5b611dff60a06130d6565b90506000611e0f84828501611f6f565b6000830152506020611e2384828501611f6f565b6020830152506040611e3784828501611e6c565b60408301525060a0611e4b84828501611e6c565b606083015250610100611e6084828501611e6c565b60808301525092915050565b600060608284031215611e7e57600080fd5b611e8860606130d6565b90506000611e9884828501611d28565b6000830152506020611eac84828501611d28565b6020830152506040611ec084828501611f6f565b60408301525092915050565b600060a08284031215611ede57600080fd5b81905092915050565b600060a08284031215611ef957600080fd5b611f0360a06130d6565b90506000611f1384828501611d28565b6000830152506020611f2784828501611db1565b6020830152506040611f3b84828501611db1565b6040830152506060611f4f84828501611f99565b6060830152506080611f6384828501611d9c565b60808301525092915050565b600081359050611f7e8161335d565b92915050565b600081519050611f938161335d565b92915050565b600081359050611fa881613374565b92915050565b600060208284031215611fc057600080fd5b6000611fce84828501611d28565b91505092915050565b60008060408385031215611fea57600080fd5b6000611ff885828601611d28565b925050602061200985828601611f6f565b9150509250929050565b6000806020838503121561202657600080fd5b600083013567ffffffffffffffff81111561204057600080fd5b61204c85828601611d3d565b92509250509250929050565b60006020828403121561206a57600080fd5b600061207884828501611d87565b91505092915050565b600080610200838503121561209557600080fd5b60006120a385828601611dc6565b9250506101606120b585828601611ecc565b9150509250929050565b600061016082840312156120d257600080fd5b60006120e084828501611de2565b91505092915050565b600060a082840312156120fb57600080fd5b600061210984828501611ee7565b91505092915050565b60006020828403121561212457600080fd5b600061213284828501611f84565b91505092915050565b60008060008060008060008060008060006101608c8e03121561215d57600080fd5b600061216b8e828f01611f6f565b9b5050602061217c8e828f01611d28565b9a5050604061218d8e828f01611f6f565b995050606061219e8e828f01611d28565b98505060806121af8e828f01611d28565b97505060a06121c08e828f01611f6f565b96505060c06121d18e828f01611d28565b95505060e06121e28e828f01611f6f565b9450506101006121f48e828f01611db1565b9350506101206122068e828f01611db1565b9250506101406122188e828f01611f99565b9150509295989b509295989b9093969950565b61223481613202565b82525050565b6122438161314b565b82525050565b61225a6122558261314b565b6132a1565b82525050565b6122698161315d565b82525050565b61227881613169565b82525050565b61228f61228a82613169565b6132b3565b82525050565b61229e81613195565b82525050565b6122b56122b082613195565b6132bd565b82525050565b6122c48161319f565b82525050565b60006122d58261310e565b6122df8185613124565b93506122ef81856020860161326e565b80840191505092915050565b600061230682613103565b6123108185613124565b935061232081856020860161326e565b80840191505092915050565b61233d61233882613214565b6132a1565b82525050565b61234c81613238565b82525050565b600061235d82613119565b612367818561312f565b935061237781856020860161326e565b612380816132e3565b840191505092915050565b600061239860138361312f565b91507f4f524445525f414c52454144595f54414b454e000000000000000000000000006000830152602082019050919050565b60006123d8601c83613140565b91507f19457468657265756d205369676e6564204d6573736167653a0a3332000000006000830152601c82019050919050565b6000612418600f83613140565b91507f616464726573732077616c6c65742c00000000000000000000000000000000006000830152600f82019050919050565b600061245860168361312f565b91507f4f524445525f414c52454144595f43414e43454c4544000000000000000000006000830152602082019050919050565b6000612498600f83613140565b91507f506172747920616666696c6961746500000000000000000000000000000000006000830152600f82019050919050565b60006124d8600683613140565b91507f4f726465722800000000000000000000000000000000000000000000000000006000830152600682019050919050565b6000612518600b83613140565b91507f75696e743235362069642c0000000000000000000000000000000000000000006000830152600b82019050919050565b600061255860118361312f565b91507f4f524445525f554e415641494c41424c450000000000000000000000000000006000830152602082019050919050565b600061259860128361312f565b91507f56414c55455f4d5553545f42455f5a45524f00000000000000000000000000006000830152602082019050919050565b60006125d8600c83613140565b91507f5061727479206d616b65722c00000000000000000000000000000000000000006000830152600c82019050919050565b600061261860128361312f565b91507f56414c55455f4d5553545f42455f53454e5400000000000000000000000000006000830152602082019050919050565b6000612658600183613140565b91507f29000000000000000000000000000000000000000000000000000000000000006000830152600182019050919050565b6000612698600d83613140565b91507f75696e7432353620706172616d000000000000000000000000000000000000006000830152600d82019050919050565b60006126d8600683613140565b91507f50617274792800000000000000000000000000000000000000000000000000006000830152600682019050919050565b600061271860138361312f565b91507f494e56414c49445f44455354494e4154494f4e000000000000000000000000006000830152602082019050919050565b6000612758600c83613140565b91507f50617274792074616b65722c00000000000000000000000000000000000000006000830152600c82019050919050565b6000612798601583613140565b91507f5f494e53554646494349454e545f42414c414e434500000000000000000000006000830152601582019050919050565b60006127d860138361312f565b91507f53454e4445525f554e415554484f52495a4544000000000000000000000000006000830152602082019050919050565b6000612818600d8361312f565b91507f4f524445525f45585049524544000000000000000000000000000000000000006000830152602082019050919050565b600061285860158361312f565b91507f494e56414c49445f415554485f44454c454741544500000000000000000000006000830152602082019050919050565b6000612898601783613140565b91507f5f494e53554646494349454e545f414c4c4f57414e43450000000000000000006000830152601782019050919050565b60006128d860118361312f565b91507f5349474e41545552455f494e56414c49440000000000000000000000000000006000830152602082019050919050565b600061291860138361312f565b91507f494e56414c49445f415554485f455850495259000000000000000000000000006000830152602082019050919050565b6000612958600f83613140565b91507f75696e74323536206578706972792c00000000000000000000000000000000006000830152600f82019050919050565b600061299860138361312f565b91507f5349474e45525f554e415554484f52495a4544000000000000000000000000006000830152602082019050919050565b60006129d8600e83613140565b91507f6164647265737320746f6b656e2c0000000000000000000000000000000000006000830152600e82019050919050565b612a14816131eb565b82525050565b612a2b612a26826131eb565b6132d9565b82525050565b612a3a816131f5565b82525050565b6000612a4c828d61227e565b600182019150612a5c828c61232c565b601482019150612a6c828b612a1a565b602082019150612a7c828a612249565b601482019150612a8c8289612a1a565b602082019150612a9c8288612249565b601482019150612aac8287612249565b601482019150612abc8286612a1a565b602082019150612acc8285612249565b601482019150612adc8284612a1a565b6020820191508190509b9a5050505050505050505050565b6000612b0082846122ca565b9150612b0b8261278b565b915081905092915050565b6000612b2282846122ca565b9150612b2d8261288b565b915081905092915050565b6000612b4482866122fb565b9150612b5082856122a4565b602082019150612b6082846122a4565b602082019150819050949350505050565b6000612b7c826123cb565b9150612b8882846122a4565b60208201915081905092915050565b6000612ba2826124cb565b9150612bad8261250b565b9150612bb88261294b565b9150612bc3826125cb565b9150612bce8261274b565b9150612bd98261248b565b9150612be48261264b565b9150612bef826126cb565b9150612bfa8261240b565b9150612c05826129cb565b9150612c108261268b565b9150612c1b8261264b565b9150819050919050565b6000612c30826126cb565b9150612c3b8261240b565b9150612c46826129cb565b9150612c518261268b565b9150612c5c8261264b565b9150819050919050565b6000602082019050612c7b600083018461223a565b92915050565b6000604082019050612c96600083018561223a565b612ca3602083018461223a565b9392505050565b6000606082019050612cbf600083018661223a565b612ccc602083018561223a565b612cd96040830184612a0b565b949350505050565b6000602082019050612cf66000830184612260565b92915050565b6000602082019050612d11600083018461226f565b92915050565b6000608082019050612d2c6000830187612295565b612d39602083018661223a565b612d46604083018561223a565b612d536060830184612a0b565b95945050505050565b600060c082019050612d716000830189612295565b612d7e6020830188612a0b565b612d8b6040830187612a0b565b612d986060830186612295565b612da56080830185612295565b612db260a0830184612295565b979650505050505050565b6000608082019050612dd26000830187612295565b612ddf6020830186612a31565b612dec6040830185612295565b612df96060830184612295565b95945050505050565b6000602082019050612e1760008301846122bb565b92915050565b60006020820190508181036000830152612e378184612352565b905092915050565b60006020820190508181036000830152612e588161238b565b9050919050565b60006020820190508181036000830152612e788161244b565b9050919050565b60006020820190508181036000830152612e988161254b565b9050919050565b60006020820190508181036000830152612eb88161258b565b9050919050565b60006020820190508181036000830152612ed88161260b565b9050919050565b60006020820190508181036000830152612ef88161270b565b9050919050565b60006020820190508181036000830152612f18816127cb565b9050919050565b60006020820190508181036000830152612f388161280b565b9050919050565b60006020820190508181036000830152612f588161284b565b9050919050565b60006020820190508181036000830152612f78816128cb565b9050919050565b60006020820190508181036000830152612f988161290b565b9050919050565b60006020820190508181036000830152612fb88161298b565b9050919050565b6000602082019050612fd46000830184612a0b565b92915050565b600061010082019050612ff0600083018b612a0b565b612ffd602083018a61223a565b61300a604083018961223a565b6130176060830188612a0b565b613024608083018761223a565b61303160a083018661222b565b61303e60c0830185612343565b61304b60e083018461222b565b9998505050505050505050565b60006101008201905061306e600083018b612a0b565b61307b602083018a61223a565b613088604083018961223a565b6130956060830188612a0b565b6130a2608083018761223a565b6130af60a083018661223a565b6130bc60c0830185612a0b565b6130c960e083018461223a565b9998505050505050505050565b6000604051905081810181811067ffffffffffffffff821117156130f957600080fd5b8060405250919050565b600081519050919050565b600081519050919050565b600081519050919050565b600081905092915050565b600082825260208201905092915050565b600081905092915050565b6000613156826131cb565b9050919050565b60008115159050919050565b60007fff0000000000000000000000000000000000000000000000000000000000000082169050919050565b6000819050919050565b60007fffffffff0000000000000000000000000000000000000000000000000000000082169050919050565b600073ffffffffffffffffffffffffffffffffffffffff82169050919050565b6000819050919050565b600060ff82169050919050565b600061320d8261324a565b9050919050565b600061321f82613226565b9050919050565b6000613231826131cb565b9050919050565b6000613243826131eb565b9050919050565b60006132558261325c565b9050919050565b6000613267826131cb565b9050919050565b60005b8381101561328c578082015181840152602081019050613271565b8381111561329b576000848401525b50505050565b60006132ac826132c7565b9050919050565b6000819050919050565b6000819050919050565b60006132d2826132f4565b9050919050565b6000819050919050565b6000601f19601f8301169050919050565b60008160601b9050919050565b61330a8161314b565b811461331557600080fd5b50565b6133218161315d565b811461332c57600080fd5b50565b61333881613169565b811461334357600080fd5b50565b61334f81613195565b811461335a57600080fd5b50565b613366816131eb565b811461337157600080fd5b50565b61337d816131f5565b811461338857600080fd5b5056fea265627a7a72305820bd79e977ce192c305ab60c1b9e06173d1c4138fe614bb6a1d3c5205660e390926c6578706572696d656e74616cf50037",
  "source": "pragma solidity 0.5.8;\npragma experimental ABIEncoderV2;\n\nimport \"./lib/Authorizable.sol\";\nimport \"./lib/Transferable.sol\";\nimport \"./lib/Verifiable.sol\";\n\n\n/**\n* @title Atomic swap contract used by the Swap Protocol\n*/\ncontract Swap is Authorizable, Transferable, Verifiable {\n\n  byte constant private OPEN = 0x00;\n  byte constant private TAKEN = 0x01;\n  byte constant private CANCELED = 0x02;\n\n  // Maps makers to orders by ID as TAKEN (0x01) or CANCELED (0x02)\n  mapping (address => mapping (uint256 => byte)) public makerOrderStatus;\n\n  // Emitted on Swap\n  event Swap(\n    uint256 indexed id,\n    address indexed makerAddress,\n    uint256 makerParam,\n    address makerToken,\n    address takerAddress,\n    uint256 takerParam,\n    address takerToken,\n    address affiliateAddress,\n    uint256 affiliateParam,\n    address affiliateToken\n  );\n\n  // Emitted on Cancel\n  event Cancel(\n    uint256 indexed id,\n    address indexed makerAddress\n  );\n\n  /**\n    * @notice Atomic Token Swap\n    * @dev Determines type (ERC-20 or ERC-721) with ERC-165\n    *\n    * @param order Order\n    * @param signature Signature\n    */\n  function swap(\n    Order calldata order,\n    Signature calldata signature\n  )\n    external payable\n  {\n\n    // Ensure the order is not expired\n    require(order.expiry > block.timestamp,\n      \"ORDER_EXPIRED\");\n\n    // Ensure the order has not already been taken\n    require(makerOrderStatus[order.maker.wallet][order.id] != TAKEN,\n      \"ORDER_ALREADY_TAKEN\");\n\n    // Ensure the order has not already been canceled\n    require(makerOrderStatus[order.maker.wallet][order.id] != CANCELED,\n      \"ORDER_ALREADY_CANCELED\");\n\n    // Ensure the order sender is authorized\n    if (msg.sender != order.taker.wallet) {\n      require(isAuthorized(order.taker.wallet, msg.sender),\n        \"SENDER_UNAUTHORIZED\");\n    }\n\n    // Ensure the order signer is authorized\n    require(isAuthorized(order.maker.wallet, signature.signer),\n      \"SIGNER_UNAUTHORIZED\");\n\n    // Ensure the order signature is valid\n    require(isValid(order, signature),\n      \"SIGNATURE_INVALID\");\n\n    // Mark the order TAKEN (0x01)\n    makerOrderStatus[order.maker.wallet][order.id] = TAKEN;\n\n    // A null taker token is an order for ether\n    if (order.taker.token == address(0)) {\n\n      // Ensure the ether sent matches the taker param\n      require(msg.value == order.taker.param,\n        \"VALUE_MUST_BE_SENT\");\n\n      // Transfer ether from taker to maker\n      send(order.maker.wallet, msg.value);\n\n    } else {\n\n      // Ensure the value sent is zero\n      require(msg.value == 0,\n        \"VALUE_MUST_BE_ZERO\");\n\n      // Transfer token from taker to maker\n      safeTransferAny(\n        \"TAKER\",\n        order.taker.wallet,\n        order.maker.wallet,\n        order.taker.param,\n        order.taker.token\n      );\n\n    }\n\n    // Transfer token from maker to taker\n    safeTransferAny(\n      \"MAKER\",\n      order.maker.wallet,\n      order.taker.wallet,\n      order.maker.param,\n      order.maker.token\n    );\n\n    // Transfer token from maker to affiliate if specified\n    if (order.affiliate.wallet != address(0)) {\n      safeTransferAny(\n        \"MAKER\",\n        order.maker.wallet,\n        order.affiliate.wallet,\n        order.affiliate.param,\n        order.affiliate.token\n      );\n    }\n\n    emit Swap(order.id,\n      order.maker.wallet, order.maker.param, order.maker.token,\n      order.taker.wallet, order.taker.param, order.taker.token,\n      order.affiliate.wallet, order.affiliate.param, order.affiliate.token\n    );\n  }\n\n  /**\n    * @notice Atomic Token Swap (Simple)\n    * @dev Determines type (ERC-20 or ERC-721) with ERC-165\n    *\n    * @param id uint256\n    * @param makerWallet address\n    * @param makerParam uint256\n    * @param makerToken address\n    * @param takerWallet address\n    * @param takerParam uint256\n    * @param takerToken address\n    * @param expiry uint256\n    * @param r bytes32\n    * @param s bytes32\n    * @param v uint8\n    */\n  function swapSimple(\n    uint256 id,\n    address makerWallet,\n    uint256 makerParam,\n    address makerToken,\n    address takerWallet,\n    uint256 takerParam,\n    address takerToken,\n    uint256 expiry,\n    bytes32 r,\n    bytes32 s,\n    uint8 v\n  )\n    external payable\n  {\n\n    // Ensure the order is not expired\n    require(expiry > block.timestamp,\n      \"ORDER_EXPIRED\");\n\n    // Ensure the order has not already been taken or canceled\n    require(makerOrderStatus[makerWallet][id] == OPEN,\n      \"ORDER_UNAVAILABLE\");\n\n    // Ensure the order sender is authorized\n    if (msg.sender != takerWallet) {\n      require(isAuthorized(takerWallet, msg.sender),\n        \"SENDER_UNAUTHORIZED\");\n    }\n\n    // Ensure the order signature is valid\n    require(isValidSimple(\n      id,\n      makerWallet,\n      makerParam,\n      makerToken,\n      takerWallet,\n      takerParam,\n      takerToken,\n      expiry,\n      r, s, v\n    ), \"SIGNATURE_INVALID\");\n\n    // Mark the order TAKEN (0x01)\n    makerOrderStatus[makerWallet][id] = TAKEN;\n\n    // A null taker token is an order for ether\n    if (takerToken == address(0)) {\n\n      // Ensure the ether sent matches the taker param\n      require(msg.value == takerParam,\n        \"VALUE_MUST_BE_SENT\");\n\n      // Transfer ether from taker to maker\n      send(makerWallet, msg.value);\n\n    } else {\n\n      // Ensure the value sent is zero\n      require(msg.value == 0,\n        \"VALUE_MUST_BE_ZERO\");\n\n      // Transfer token from taker to maker\n      transferAny(takerToken, takerWallet, makerWallet, takerParam);\n\n    }\n\n    // Transfer token from maker to taker\n    transferAny(makerToken, makerWallet, takerWallet, makerParam);\n\n    emit Swap(id,\n      makerWallet, makerParam, makerToken,\n      takerWallet, takerParam, takerToken,\n      address(0), 0, address(0)\n    );\n\n  }\n\n  /** @notice Cancel a batch of orders\n    * @dev Canceled orders are marked CANCELED (0x02)\n    * @param ids uint256[]\n    */\n  function cancel(uint256[] calldata ids) external {\n    for (uint256 i = 0; i < ids.length; i++) {\n      if (makerOrderStatus[msg.sender][ids[i]] == OPEN) {\n        makerOrderStatus[msg.sender][ids[i]] = CANCELED;\n        emit Cancel(ids[i], msg.sender);\n      }\n    }\n  }\n\n}\n",
  "sourcePath": "/Users/dmosites/Projects/swap-contract/contracts/Swap.sol",
  "compiler": {
    "name": "solc",
    "version": "0.5.8+commit.23d335f2.Emscripten.clang"
  },
  "schemaVersion": "3.0.9",
  "updatedAt": "2019-05-17T18:35:48.133Z",
  "devdoc": {
    "methods": {
      "cancel(uint256[])": {
        "details": "Canceled orders are marked CANCELED (0x02)",
        "params": {
          "ids": "uint256[]"
        }
      },
      "swap((uint256,uint256,(address,address,uint256),(address,address,uint256),(address,address,uint256)),(address,bytes32,bytes32,uint8,bytes1))": {
        "details": "Determines type (ERC-20 or ERC-721) with ERC-165",
        "params": {
          "order": "Order",
          "signature": "Signature"
        }
      },
      "swapSimple(uint256,address,uint256,address,address,uint256,address,uint256,bytes32,bytes32,uint8)": {
        "details": "Determines type (ERC-20 or ERC-721) with ERC-165",
        "params": {
          "expiry": "uint256",
          "id": "uint256",
          "makerParam": "uint256",
          "makerToken": "address",
          "makerWallet": "address",
          "r": "bytes32",
          "s": "bytes32",
          "takerParam": "uint256",
          "takerToken": "address",
          "takerWallet": "address",
          "v": "uint8"
        }
      }
    },
    "title": "Atomic swap contract used by the Swap Protocol"
  },
  "userdoc": {
    "methods": {
      "cancel(uint256[])": {
        "notice": "Cancel a batch of orders"
      },
      "swap((uint256,uint256,(address,address,uint256),(address,address,uint256),(address,address,uint256)),(address,bytes32,bytes32,uint8,bytes1))": {
        "notice": "Atomic Token Swap"
      },
      "swapSimple(uint256,address,uint256,address,address,uint256,address,uint256,bytes32,bytes32,uint8)": {
        "notice": "Atomic Token Swap (Simple)"
      }
    }
  }
}